{
  "contractName": "Lottery",
  "abi": [
    {
      "constant": true,
      "inputs": [],
      "name": "manager",
      "outputs": [
        {
          "name": "",
          "type": "address"
        }
      ],
      "payable": false,
      "stateMutability": "view",
      "type": "function"
    },
    {
      "constant": false,
      "inputs": [],
      "name": "pickWinner",
      "outputs": [],
      "payable": false,
      "stateMutability": "nonpayable",
      "type": "function"
    },
    {
      "constant": true,
      "inputs": [],
      "name": "getPlayers",
      "outputs": [
        {
          "name": "",
          "type": "address[]"
        }
      ],
      "payable": false,
      "stateMutability": "view",
      "type": "function"
    },
    {
      "constant": false,
      "inputs": [],
      "name": "enter",
      "outputs": [],
      "payable": true,
      "stateMutability": "payable",
      "type": "function"
    },
    {
      "constant": true,
      "inputs": [
        {
          "name": "",
          "type": "uint256"
        }
      ],
      "name": "players",
      "outputs": [
        {
          "name": "",
          "type": "address"
        }
      ],
      "payable": false,
      "stateMutability": "view",
      "type": "function"
    },
    {
      "inputs": [],
      "payable": false,
      "stateMutability": "nonpayable",
      "type": "constructor"
    }
  ],
  "bytecode": "0x6060604052341561000f57600080fd5b336000806101000a81548173ffffffffffffffffffffffffffffffffffffffff021916908373ffffffffffffffffffffffffffffffffffffffff1602179055506106568061005e6000396000f30060606040526004361061006d576000357c0100000000000000000000000000000000000000000000000000000000900463ffffffff168063481c6a75146100725780635d495aea146100c75780638b5b9ccc146100dc578063e97dcb6214610146578063f71d96cb14610150575b600080fd5b341561007d57600080fd5b6100856101b3565b604051808273ffffffffffffffffffffffffffffffffffffffff1673ffffffffffffffffffffffffffffffffffffffff16815260200191505060405180910390f35b34156100d257600080fd5b6100da6101d8565b005b34156100e757600080fd5b6100ef610319565b6040518080602001828103825283818151815260200191508051906020019060200280838360005b83811015610132578082015181840152602081019050610117565b505050509050019250505060405180910390f35b61014e6103ad565b005b341561015b57600080fd5b6101716004808035906020019091905050610427565b604051808273ffffffffffffffffffffffffffffffffffffffff1673ffffffffffffffffffffffffffffffffffffffff16815260200191505060405180910390f35b6000809054906101000a900473ffffffffffffffffffffffffffffffffffffffff1681565b60008060009054906101000a900473ffffffffffffffffffffffffffffffffffffffff1673ffffffffffffffffffffffffffffffffffffffff163373ffffffffffffffffffffffffffffffffffffffff1614151561023557600080fd5b600180549050610243610466565b81151561024c57fe5b06905060018181548110151561025e57fe5b906000526020600020900160009054906101000a900473ffffffffffffffffffffffffffffffffffffffff1673ffffffffffffffffffffffffffffffffffffffff166108fc3073ffffffffffffffffffffffffffffffffffffffff16319081150290604051600060405180830381858888f1935050505015156102e057600080fd5b60006040518059106102ef5750595b9080825280602002602001820160405250600190805190602001906103159291906104f8565b5050565b610321610582565b60018054806020026020016040519081016040528092919081815260200182805480156103a357602002820191906000526020600020905b8160009054906101000a900473ffffffffffffffffffffffffffffffffffffffff1673ffffffffffffffffffffffffffffffffffffffff1681526020019060010190808311610359575b5050505050905090565b662386f26fc10000341115156103c257600080fd5b600180548060010182816103d69190610596565b9160005260206000209001600033909190916101000a81548173ffffffffffffffffffffffffffffffffffffffff021916908373ffffffffffffffffffffffffffffffffffffffff16021790555050565b60018181548110151561043657fe5b90600052602060002090016000915054906101000a900473ffffffffffffffffffffffffffffffffffffffff1681565b6000444260016040518084815260200183815260200182805480156104e057602002820191906000526020600020905b8160009054906101000a900473ffffffffffffffffffffffffffffffffffffffff1673ffffffffffffffffffffffffffffffffffffffff1681526020019060010190808311610496575b50509350505050604051809103902060019004905090565b828054828255906000526020600020908101928215610571579160200282015b828111156105705782518260006101000a81548173ffffffffffffffffffffffffffffffffffffffff021916908373ffffffffffffffffffffffffffffffffffffffff16021790555091602001919060010190610518565b5b50905061057e91906105c2565b5090565b602060405190810160405280600081525090565b8154818355818115116105bd578183600052602060002091820191016105bc9190610605565b5b505050565b61060291905b808211156105fe57600081816101000a81549073ffffffffffffffffffffffffffffffffffffffff0219169055506001016105c8565b5090565b90565b61062791905b8082111561062357600081600090555060010161060b565b5090565b905600a165627a7a7230582052aceffebd400f37d7db92949cae62e4f5c47d61379596698927fedeac4ab78e0029",
  "source": "pragma solidity ^0.4.17;\r\n\r\ncontract Lottery {\r\n    address public manager;\r\n    address[] public players;\r\n\r\n    function Lottery() public {\r\n        manager = msg.sender;\r\n    }\r\n\r\n    function enter() public payable {\r\n        require(msg.value > .01 ether);\r\n\r\n        players.push(msg.sender);\r\n    }\r\n\r\n    function random() private view returns(uint) {\r\n        return uint(keccak256(block.difficulty, now, players));\r\n    }\r\n\r\n    function pickWinner() public restricted {\r\n        uint index = random() % players.length;\r\n        players[index].transfer(this.balance);\r\n        players = new address[](0);\r\n    }\r\n\r\n    modifier restricted() {\r\n        require(msg.sender == manager);\r\n        _;\r\n    }\r\n\r\n    function getPlayers() public view returns(address[]) {\r\n        return players;\r\n    }\r\n}",
  "sourcePath": "D:\\3rdYear_BLOCKER_APP\\Training\\VehicleContract\\contracts\\Lottery.sol",
  "compiler": {
    "name": "solc",
    "version": "0.4.18+commit.9cf6e910.Emscripten.clang"
  },
  "schemaVersion": "1.0.1",
  "updatedAt": "2020-03-06T07:25:37.203Z"
}