{
  "contractName": "Vehicle",
  "abi": [
    {
      "constant": false,
      "inputs": [
        {
          "name": "Owner",
          "type": "string"
        },
        {
          "name": "Address",
          "type": "string"
        },
        {
          "name": "NIC",
          "type": "string"
        },
        {
          "name": "Email",
          "type": "string"
        },
        {
          "name": "Telephone",
          "type": "string"
        },
        {
          "name": "Date",
          "type": "string"
        }
      ],
      "name": "createOwner",
      "outputs": [],
      "payable": false,
      "stateMutability": "nonpayable",
      "type": "function"
    },
    {
      "constant": false,
      "inputs": [
        {
          "name": "chassisN",
          "type": "string"
        },
        {
          "name": "date",
          "type": "string"
        }
      ],
      "name": "setchassisNumber",
      "outputs": [],
      "payable": false,
      "stateMutability": "nonpayable",
      "type": "function"
    },
    {
      "constant": true,
      "inputs": [],
      "name": "provincialCouncil",
      "outputs": [
        {
          "name": "",
          "type": "string"
        }
      ],
      "payable": false,
      "stateMutability": "view",
      "type": "function"
    },
    {
      "constant": true,
      "inputs": [],
      "name": "chassis",
      "outputs": [
        {
          "name": "",
          "type": "string"
        }
      ],
      "payable": false,
      "stateMutability": "view",
      "type": "function"
    },
    {
      "constant": true,
      "inputs": [
        {
          "name": "",
          "type": "uint256"
        }
      ],
      "name": "chassisNumbers",
      "outputs": [
        {
          "name": "chassis",
          "type": "string"
        },
        {
          "name": "date",
          "type": "string"
        }
      ],
      "payable": false,
      "stateMutability": "view",
      "type": "function"
    },
    {
      "constant": true,
      "inputs": [
        {
          "name": "",
          "type": "uint256"
        }
      ],
      "name": "ownerships",
      "outputs": [
        {
          "name": "Owner",
          "type": "string"
        },
        {
          "name": "Address",
          "type": "string"
        },
        {
          "name": "NIC",
          "type": "string"
        },
        {
          "name": "Email",
          "type": "string"
        },
        {
          "name": "Telephone",
          "type": "string"
        },
        {
          "name": "Date",
          "type": "string"
        }
      ],
      "payable": false,
      "stateMutability": "view",
      "type": "function"
    },
    {
      "constant": true,
      "inputs": [],
      "name": "colour",
      "outputs": [
        {
          "name": "",
          "type": "string"
        }
      ],
      "payable": false,
      "stateMutability": "view",
      "type": "function"
    },
    {
      "constant": true,
      "inputs": [],
      "name": "manager",
      "outputs": [
        {
          "name": "",
          "type": "address"
        }
      ],
      "payable": false,
      "stateMutability": "view",
      "type": "function"
    },
    {
      "constant": false,
      "inputs": [
        {
          "name": "_message",
          "type": "string"
        }
      ],
      "name": "setGreetings",
      "outputs": [],
      "payable": false,
      "stateMutability": "nonpayable",
      "type": "function"
    },
    {
      "constant": false,
      "inputs": [
        {
          "name": "province",
          "type": "string"
        }
      ],
      "name": "setProvincialCouncil",
      "outputs": [],
      "payable": false,
      "stateMutability": "nonpayable",
      "type": "function"
    },
    {
      "constant": true,
      "inputs": [],
      "name": "Raddress",
      "outputs": [
        {
          "name": "",
          "type": "string"
        }
      ],
      "payable": false,
      "stateMutability": "view",
      "type": "function"
    },
    {
      "constant": false,
      "inputs": [
        {
          "name": "colourN",
          "type": "string"
        },
        {
          "name": "date",
          "type": "string"
        }
      ],
      "name": "setColour",
      "outputs": [],
      "payable": false,
      "stateMutability": "nonpayable",
      "type": "function"
    },
    {
      "constant": true,
      "inputs": [],
      "name": "nic",
      "outputs": [
        {
          "name": "",
          "type": "string"
        }
      ],
      "payable": false,
      "stateMutability": "view",
      "type": "function"
    },
    {
      "constant": true,
      "inputs": [],
      "name": "owner",
      "outputs": [
        {
          "name": "",
          "type": "string"
        }
      ],
      "payable": false,
      "stateMutability": "view",
      "type": "function"
    },
    {
      "constant": true,
      "inputs": [
        {
          "name": "",
          "type": "uint256"
        }
      ],
      "name": "engineNumbers",
      "outputs": [
        {
          "name": "engine",
          "type": "string"
        },
        {
          "name": "date",
          "type": "string"
        }
      ],
      "payable": false,
      "stateMutability": "view",
      "type": "function"
    },
    {
      "constant": true,
      "inputs": [],
      "name": "registrationNumber",
      "outputs": [
        {
          "name": "",
          "type": "string"
        }
      ],
      "payable": false,
      "stateMutability": "view",
      "type": "function"
    },
    {
      "constant": true,
      "inputs": [
        {
          "name": "",
          "type": "uint256"
        }
      ],
      "name": "colours",
      "outputs": [
        {
          "name": "colour",
          "type": "string"
        },
        {
          "name": "date",
          "type": "string"
        }
      ],
      "payable": false,
      "stateMutability": "view",
      "type": "function"
    },
    {
      "constant": true,
      "inputs": [],
      "name": "engine",
      "outputs": [
        {
          "name": "",
          "type": "string"
        }
      ],
      "payable": false,
      "stateMutability": "view",
      "type": "function"
    },
    {
      "constant": true,
      "inputs": [],
      "name": "getGreetings",
      "outputs": [
        {
          "name": "",
          "type": "string"
        }
      ],
      "payable": false,
      "stateMutability": "view",
      "type": "function"
    },
    {
      "constant": false,
      "inputs": [
        {
          "name": "engineN",
          "type": "string"
        },
        {
          "name": "date",
          "type": "string"
        }
      ],
      "name": "setengineNumber",
      "outputs": [],
      "payable": false,
      "stateMutability": "nonpayable",
      "type": "function"
    },
    {
      "inputs": [
        {
          "name": "regNumber",
          "type": "string"
        },
        {
          "name": "vehicleCreator",
          "type": "address"
        }
      ],
      "payable": false,
      "stateMutability": "nonpayable",
      "type": "constructor"
    }
  ],
  "bytecode": "0x606060405234156200001057600080fd5b604051620023f4380380620023f48339810160405280805182019190602001805190602001909190505080600b60006101000a81548173ffffffffffffffffffffffffffffffffffffffff021916908373ffffffffffffffffffffffffffffffffffffffff16021790555081600c908051906020019062000093929190620000ea565b506040805190810160405280601a81526020017f56656869636c6520636f6e7472616374204465706c6f79656421000000000000815250600d9080519060200190620000e1929190620000ea565b50505062000199565b828054600181600116156101000203166002900490600052602060002090601f016020900481019282601f106200012d57805160ff19168380011785556200015e565b828001600101855582156200015e579182015b828111156200015d57825182559160200191906001019062000140565b5b5090506200016d919062000171565b5090565b6200019691905b808211156200019257600081600090555060010162000178565b5090565b90565b61224b80620001a96000396000f300606060405260043610610112576000357c0100000000000000000000000000000000000000000000000000000000900463ffffffff1680631efdfed21461011757806320082ce0146102c35780632719bac1146103635780632e2d3e6b146103f157806339e6f5881461047f5780633acefa20146105c15780633dbc061014610927578063481c6a75146109b557806349da5de414610a0a5780634e61b09814610a675780637c697bdf14610ac45780637fb6f4bc14610b52578063804518a814610bf25780638da5cb5b14610c80578063956fa59b14610d0e578063b2a1a40a14610e50578063c76ab94014610ede578063c9d4623f14611020578063ca4c3a41146110ae578063cf3fef5c1461113c575b600080fd5b341561012257600080fd5b6102c1600480803590602001908201803590602001908080601f0160208091040260200160405190810160405280939291908181526020018383808284378201915050505050509190803590602001908201803590602001908080601f0160208091040260200160405190810160405280939291908181526020018383808284378201915050505050509190803590602001908201803590602001908080601f0160208091040260200160405190810160405280939291908181526020018383808284378201915050505050509190803590602001908201803590602001908080601f0160208091040260200160405190810160405280939291908181526020018383808284378201915050505050509190803590602001908201803590602001908080601f0160208091040260200160405190810160405280939291908181526020018383808284378201915050505050509190803590602001908201803590602001908080601f016020809104026020016040519081016040528093929190818152602001838380828437820191505050505050919050506111dc565b005b34156102ce57600080fd5b610361600480803590602001908201803590602001908080601f0160208091040260200160405190810160405280939291908181526020018383808284378201915050505050509190803590602001908201803590602001908080601f01602080910402602001604051908101604052809392919081815260200183838082843782019150505050505091905050611399565b005b341561036e57600080fd5b610376611497565b6040518080602001828103825283818151815260200191508051906020019080838360005b838110156103b657808201518184015260208101905061039b565b50505050905090810190601f1680156103e35780820380516001836020036101000a031916815260200191505b509250505060405180910390f35b34156103fc57600080fd5b610404611535565b6040518080602001828103825283818151815260200191508051906020019080838360005b83811015610444578082015181840152602081019050610429565b50505050905090810190601f1680156104715780820380516001836020036101000a031916815260200191505b509250505060405180910390f35b341561048a57600080fd5b6104a060048080359060200190919050506115d3565b60405180806020018060200183810383528581815460018160011615610100020316600290048152602001915080546001816001161561010002031660029004801561052d5780601f106105025761010080835404028352916020019161052d565b820191906000526020600020905b81548152906001019060200180831161051057829003601f168201915b50508381038252848181546001816001161561010002031660029004815260200191508054600181600116156101000203166002900480156105b05780601f10610585576101008083540402835291602001916105b0565b820191906000526020600020905b81548152906001019060200180831161059357829003601f168201915b505094505050505060405180910390f35b34156105cc57600080fd5b6105e26004808035906020019091905050611604565b6040518080602001806020018060200180602001806020018060200187810387528d81815460018160011615610100020316600290048152602001915080546001816001161561010002031660029004801561067f5780601f106106545761010080835404028352916020019161067f565b820191906000526020600020905b81548152906001019060200180831161066257829003601f168201915b505087810386528c8181546001816001161561010002031660029004815260200191508054600181600116156101000203166002900480156107025780601f106106d757610100808354040283529160200191610702565b820191906000526020600020905b8154815290600101906020018083116106e557829003601f168201915b505087810385528b8181546001816001161561010002031660029004815260200191508054600181600116156101000203166002900480156107855780601f1061075a57610100808354040283529160200191610785565b820191906000526020600020905b81548152906001019060200180831161076857829003601f168201915b505087810384528a8181546001816001161561010002031660029004815260200191508054600181600116156101000203166002900480156108085780601f106107dd57610100808354040283529160200191610808565b820191906000526020600020905b8154815290600101906020018083116107eb57829003601f168201915b505087810383528981815460018160011615610100020316600290048152602001915080546001816001161561010002031660029004801561088b5780601f106108605761010080835404028352916020019161088b565b820191906000526020600020905b81548152906001019060200180831161086e57829003601f168201915b505087810382528881815460018160011615610100020316600290048152602001915080546001816001161561010002031660029004801561090e5780601f106108e35761010080835404028352916020019161090e565b820191906000526020600020905b8154815290600101906020018083116108f157829003601f168201915b50509c5050505050505050505050505060405180910390f35b341561093257600080fd5b61093a611649565b6040518080602001828103825283818151815260200191508051906020019080838360005b8381101561097a57808201518184015260208101905061095f565b50505050905090810190601f1680156109a75780820380516001836020036101000a031916815260200191505b509250505060405180910390f35b34156109c057600080fd5b6109c86116e7565b604051808273ffffffffffffffffffffffffffffffffffffffff1673ffffffffffffffffffffffffffffffffffffffff16815260200191505060405180910390f35b3415610a1557600080fd5b610a65600480803590602001908201803590602001908080601f0160208091040260200160405190810160405280939291908181526020018383808284378201915050505050509190505061170d565b005b3415610a7257600080fd5b610ac2600480803590602001908201803590602001908080601f01602080910402602001604051908101604052809392919081815260200183838082843782019150505050505091905050611727565b005b3415610acf57600080fd5b610ad761179d565b6040518080602001828103825283818151815260200191508051906020019080838360005b83811015610b17578082015181840152602081019050610afc565b50505050905090810190601f168015610b445780820380516001836020036101000a031916815260200191505b509250505060405180910390f35b3415610b5d57600080fd5b610bf0600480803590602001908201803590602001908080601f0160208091040260200160405190810160405280939291908181526020018383808284378201915050505050509190803590602001908201803590602001908080601f0160208091040260200160405190810160405280939291908181526020018383808284378201915050505050509190505061183b565b005b3415610bfd57600080fd5b610c05611939565b6040518080602001828103825283818151815260200191508051906020019080838360005b83811015610c45578082015181840152602081019050610c2a565b50505050905090810190601f168015610c725780820380516001836020036101000a031916815260200191505b509250505060405180910390f35b3415610c8b57600080fd5b610c936119d7565b6040518080602001828103825283818151815260200191508051906020019080838360005b83811015610cd3578082015181840152602081019050610cb8565b50505050905090810190601f168015610d005780820380516001836020036101000a031916815260200191505b509250505060405180910390f35b3415610d1957600080fd5b610d2f6004808035906020019091905050611a75565b604051808060200180602001838103835285818154600181600116156101000203166002900481526020019150805460018160011615610100020316600290048015610dbc5780601f10610d9157610100808354040283529160200191610dbc565b820191906000526020600020905b815481529060010190602001808311610d9f57829003601f168201915b5050838103825284818154600181600116156101000203166002900481526020019150805460018160011615610100020316600290048015610e3f5780601f10610e1457610100808354040283529160200191610e3f565b820191906000526020600020905b815481529060010190602001808311610e2257829003601f168201915b505094505050505060405180910390f35b3415610e5b57600080fd5b610e63611aa6565b6040518080602001828103825283818151815260200191508051906020019080838360005b83811015610ea3578082015181840152602081019050610e88565b50505050905090810190601f168015610ed05780820380516001836020036101000a031916815260200191505b509250505060405180910390f35b3415610ee957600080fd5b610eff6004808035906020019091905050611b44565b604051808060200180602001838103835285818154600181600116156101000203166002900481526020019150805460018160011615610100020316600290048015610f8c5780601f10610f6157610100808354040283529160200191610f8c565b820191906000526020600020905b815481529060010190602001808311610f6f57829003601f168201915b505083810382528481815460018160011615610100020316600290048152602001915080546001816001161561010002031660029004801561100f5780601f10610fe45761010080835404028352916020019161100f565b820191906000526020600020905b815481529060010190602001808311610ff257829003601f168201915b505094505050505060405180910390f35b341561102b57600080fd5b611033611b75565b6040518080602001828103825283818151815260200191508051906020019080838360005b83811015611073578082015181840152602081019050611058565b50505050905090810190601f1680156110a05780820380516001836020036101000a031916815260200191505b509250505060405180910390f35b34156110b957600080fd5b6110c1611c13565b6040518080602001828103825283818151815260200191508051906020019080838360005b838110156111015780820151818401526020810190506110e6565b50505050905090810190601f16801561112e5780820380516001836020036101000a031916815260200191505b509250505060405180910390f35b341561114757600080fd5b6111da600480803590602001908201803590602001908080601f0160208091040260200160405190810160405280939291908181526020018383808284378201915050505050509190803590602001908201803590602001908080601f01602080910402602001604051908101604052809392919081815260200183838082843782019150505050505091905050611cbb565b005b6111e4611db9565b600b60009054906101000a900473ffffffffffffffffffffffffffffffffffffffff1673ffffffffffffffffffffffffffffffffffffffff163373ffffffffffffffffffffffffffffffffffffffff1614151561124057600080fd5b8660049080519060200190611256929190611e14565b50846005908051906020019061126d929190611e14565b508560069080519060200190611284929190611e14565b5060c060405190810160405280888152602001878152602001868152602001858152602001848152602001838152509050600080548060010182816112c99190611e94565b9160005260206000209060060201600083909190915060008201518160000190805190602001906112fb929190611ec6565b506020820151816001019080519060200190611318929190611ec6565b506040820151816002019080519060200190611335929190611ec6565b506060820151816003019080519060200190611352929190611ec6565b50608082015181600401908051906020019061136f929190611ec6565b5060a082015181600501908051906020019061138c929190611ec6565b5050505050505050505050565b6113a1611f46565b600b60009054906101000a900473ffffffffffffffffffffffffffffffffffffffff1673ffffffffffffffffffffffffffffffffffffffff163373ffffffffffffffffffffffffffffffffffffffff161415156113fd57600080fd5b8260089080519060200190611413929190611e14565b5060408051908101604052808481526020018381525090506001805480600101828161143f9190611f6c565b916000526020600020906002020160008390919091506000820151816000019080519060200190611471929190611ec6565b50602082015181600101908051906020019061148e929190611ec6565b50505050505050565b600a8054600181600116156101000203166002900480601f01602080910402602001604051908101604052809291908181526020018280546001816001161561010002031660029004801561152d5780601f106115025761010080835404028352916020019161152d565b820191906000526020600020905b81548152906001019060200180831161151057829003601f168201915b505050505081565b60088054600181600116156101000203166002900480601f0160208091040260200160405190810160405280929190818152602001828054600181600116156101000203166002900480156115cb5780601f106115a0576101008083540402835291602001916115cb565b820191906000526020600020905b8154815290600101906020018083116115ae57829003601f168201915b505050505081565b6001818154811015156115e257fe5b9060005260206000209060020201600091509050806000019080600101905082565b60008181548110151561161357fe5b90600052602060002090600602016000915090508060000190806001019080600201908060030190806004019080600501905086565b60098054600181600116156101000203166002900480601f0160208091040260200160405190810160405280929190818152602001828054600181600116156101000203166002900480156116df5780601f106116b4576101008083540402835291602001916116df565b820191906000526020600020905b8154815290600101906020018083116116c257829003601f168201915b505050505081565b600b60009054906101000a900473ffffffffffffffffffffffffffffffffffffffff1681565b80600d9080519060200190611723929190611e14565b5050565b600b60009054906101000a900473ffffffffffffffffffffffffffffffffffffffff1673ffffffffffffffffffffffffffffffffffffffff163373ffffffffffffffffffffffffffffffffffffffff1614151561178357600080fd5b80600a9080519060200190611799929190611e14565b5050565b60068054600181600116156101000203166002900480601f0160208091040260200160405190810160405280929190818152602001828054600181600116156101000203166002900480156118335780601f1061180857610100808354040283529160200191611833565b820191906000526020600020905b81548152906001019060200180831161181657829003601f168201915b505050505081565b611843611f9e565b600b60009054906101000a900473ffffffffffffffffffffffffffffffffffffffff1673ffffffffffffffffffffffffffffffffffffffff163373ffffffffffffffffffffffffffffffffffffffff1614151561189f57600080fd5b82600990805190602001906118b5929190611e14565b506040805190810160405280848152602001838152509050600380548060010182816118e19190611fc4565b916000526020600020906002020160008390919091506000820151816000019080519060200190611913929190611ec6565b506020820151816001019080519060200190611930929190611ec6565b50505050505050565b60058054600181600116156101000203166002900480601f0160208091040260200160405190810160405280929190818152602001828054600181600116156101000203166002900480156119cf5780601f106119a4576101008083540402835291602001916119cf565b820191906000526020600020905b8154815290600101906020018083116119b257829003601f168201915b505050505081565b60048054600181600116156101000203166002900480601f016020809104026020016040519081016040528092919081815260200182805460018160011615610100020316600290048015611a6d5780601f10611a4257610100808354040283529160200191611a6d565b820191906000526020600020905b815481529060010190602001808311611a5057829003601f168201915b505050505081565b600281815481101515611a8457fe5b9060005260206000209060020201600091509050806000019080600101905082565b600c8054600181600116156101000203166002900480601f016020809104026020016040519081016040528092919081815260200182805460018160011615610100020316600290048015611b3c5780601f10611b1157610100808354040283529160200191611b3c565b820191906000526020600020905b815481529060010190602001808311611b1f57829003601f168201915b505050505081565b600381815481101515611b5357fe5b9060005260206000209060020201600091509050806000019080600101905082565b60078054600181600116156101000203166002900480601f016020809104026020016040519081016040528092919081815260200182805460018160011615610100020316600290048015611c0b5780601f10611be057610100808354040283529160200191611c0b565b820191906000526020600020905b815481529060010190602001808311611bee57829003601f168201915b505050505081565b611c1b611ff6565b600d8054600181600116156101000203166002900480601f016020809104026020016040519081016040528092919081815260200182805460018160011615610100020316600290048015611cb15780601f10611c8657610100808354040283529160200191611cb1565b820191906000526020600020905b815481529060010190602001808311611c9457829003601f168201915b5050505050905090565b611cc361200a565b600b60009054906101000a900473ffffffffffffffffffffffffffffffffffffffff1673ffffffffffffffffffffffffffffffffffffffff163373ffffffffffffffffffffffffffffffffffffffff16141515611d1f57600080fd5b8260079080519060200190611d35929190611e14565b50604080519081016040528084815260200183815250905060028054806001018281611d619190612030565b916000526020600020906002020160008390919091506000820151816000019080519060200190611d93929190611ec6565b506020820151816001019080519060200190611db0929190611ec6565b50505050505050565b60c060405190810160405280611dcd612062565b8152602001611dda612062565b8152602001611de7612062565b8152602001611df4612062565b8152602001611e01612062565b8152602001611e0e612062565b81525090565b828054600181600116156101000203166002900490600052602060002090601f016020900481019282601f10611e5557805160ff1916838001178555611e83565b82800160010185558215611e83579182015b82811115611e82578251825591602001919060010190611e67565b5b509050611e909190612076565b5090565b815481835581811511611ec157600602816006028360005260206000209182019101611ec0919061209b565b5b505050565b828054600181600116156101000203166002900490600052602060002090601f016020900481019282601f10611f0757805160ff1916838001178555611f35565b82800160010185558215611f35579182015b82811115611f34578251825591602001919060010190611f19565b5b509050611f429190612076565b5090565b6040805190810160405280611f59612062565b8152602001611f66612062565b81525090565b815481835581811511611f9957600202816002028360005260206000209182019101611f98919061211a565b5b505050565b6040805190810160405280611fb1612062565b8152602001611fbe612062565b81525090565b815481835581811511611ff157600202816002028360005260206000209182019101611ff09190612159565b5b505050565b602060405190810160405280600081525090565b604080519081016040528061201d612062565b815260200161202a612062565b81525090565b81548183558181151161205d5760020281600202836000526020600020918201910161205c9190612198565b5b505050565b602060405190810160405280600081525090565b61209891905b8082111561209457600081600090555060010161207c565b5090565b90565b61211791905b8082111561211357600080820160006120ba91906121d7565b6001820160006120ca91906121d7565b6002820160006120da91906121d7565b6003820160006120ea91906121d7565b6004820160006120fa91906121d7565b60058201600061210a91906121d7565b506006016120a1565b5090565b90565b61215691905b80821115612152576000808201600061213991906121d7565b60018201600061214991906121d7565b50600201612120565b5090565b90565b61219591905b80821115612191576000808201600061217891906121d7565b60018201600061218891906121d7565b5060020161215f565b5090565b90565b6121d491905b808211156121d057600080820160006121b791906121d7565b6001820160006121c791906121d7565b5060020161219e565b5090565b90565b50805460018160011615610100020316600290046000825580601f106121fd575061221c565b601f01602090049060005260206000209081019061221b9190612076565b5b505600a165627a7a7230582054835ed10aed43a474408b9d7cccaa69cddf538c8a76451ac206bb60892e41fd0029",
  "source": "pragma solidity ^0.4.18;\r\n\r\ncontract VehicleFactory {\r\n    \r\n\taddress[] public deployedVehicles;\r\n\tmapping(string => bool) private registrationLog;\r\n\r\n\tfunction createVehicle(string regNumber) public {\r\n\t    require(!registrationLog[regNumber]);\r\n\t\taddress newVehicle = new Vehicle(regNumber, msg.sender);\r\n\t\tregistrationLog[regNumber] = true;\r\n\t\tdeployedVehicles.push(newVehicle);\r\n\t}\r\n\t\r\n\tfunction getDeployedVehicles() public view returns(address[]) {\r\n\t\treturn deployedVehicles;\r\n\t}\r\n}\r\n\r\ncontract Vehicle {\r\n    \r\n    struct Ownership {\r\n\t\tstring Owner;\r\n\t\tstring Address;\r\n\t\tstring NIC;\r\n\t\tstring Email;\r\n\t\tstring Telephone;\r\n\t\tstring Date;\r\n\t}\r\n\t\r\n\tstruct ChassisN {\r\n\t    string chassis;\r\n\t    string date;\r\n\t}\r\n\t\r\n\tstruct Engine {\r\n\t    string engine;\r\n\t    string date;\r\n\t}\r\n\t\r\n\tstruct Colours {\r\n\t    string colour;\r\n\t    string date;\r\n\t}\r\n\t\r\n    Ownership[] public ownerships;\r\n    ChassisN[] public chassisNumbers;\r\n    Engine[] public engineNumbers;\r\n    Colours[] public colours;\r\n    \r\n    string public owner;\r\n    string public nic;\r\n    string public Raddress;\r\n    string public engine;\r\n    string public chassis;\r\n    string public colour;\r\n    string public provincialCouncil;\r\n    address public manager;\r\n    string public registrationNumber;\r\n\r\n\tstring message;\r\n\r\n    modifier restricted() {\r\n\t\trequire(msg.sender == manager);\r\n\t\t_;\r\n\t}\r\n\r\n    function Vehicle(string regNumber, address vehicleCreator) public {\r\n\t\tmanager = vehicleCreator;\r\n\t\tregistrationNumber = regNumber;\r\n\t\tmessage = \"Vehicle contract Deployed!\";\r\n\t\t\r\n\t}\r\n\r\n\t\r\n  function setGreetings(string _message) public {\r\n    message = _message;\r\n  }\r\n\r\n  function getGreetings() public view returns (string) {\r\n    return message;\r\n  }\r\n\t\r\n\tfunction createOwner(string Owner, string Address, string NIC, string Email, string Telephone, string Date) public restricted {\r\n\t\towner = Owner;\r\n\t\tnic = NIC;\r\n\t\tRaddress = Address;\r\n\t\tOwnership memory newOwner = Ownership({\r\n\t\t\tOwner: Owner,\r\n\t\t\tAddress: Address,\r\n\t\t\tNIC: NIC,\r\n\t\t\tEmail: Email,\r\n\t\t\tTelephone: Telephone,\r\n\t\t\tDate: Date\r\n\t\t});\r\n\t\townerships.push(newOwner);\r\n\t}\r\n\t\r\n    function setProvincialCouncil(string province) public restricted {\r\n        provincialCouncil = province;\r\n    }\r\n    \r\n    function setchassisNumber(string chassisN, string date) public restricted {\r\n        chassis = chassisN;\r\n        ChassisN memory newChassis = ChassisN({\r\n            chassis: chassisN,\r\n            date: date\r\n        });\r\n        chassisNumbers.push(newChassis);\r\n    }\r\n    \r\n    function setengineNumber(string engineN, string date) public restricted {\r\n        engine = engineN;\r\n        Engine memory newEngine = Engine({\r\n            engine: engineN,\r\n            date: date\r\n        });\r\n        engineNumbers.push(newEngine);\r\n    }\r\n    \r\n    function setColour(string colourN, string date) public restricted {\r\n        colour = colourN;\r\n        Colours memory newColour = Colours({\r\n            colour: colourN,\r\n            date: date\r\n        });\r\n        colours.push(newColour);\r\n    }\r\n\t\r\n}",
  "sourcePath": "D:\\3rdYear_BLOCKER_APP\\Training\\VehicleContract\\contracts\\Vehicle.sol",
  "compiler": {
    "name": "solc",
    "version": "0.4.18+commit.9cf6e910.Emscripten.clang"
  },
  "schemaVersion": "1.0.1",
  "updatedAt": "2020-03-06T07:24:45.241Z"
}